{
  "contractName": "LendingContract",
  "abi": [
    {
      "inputs": [
        {
          "internalType": "address",
          "name": "_borrower",
          "type": "address"
        },
        {
          "internalType": "uint256",
          "name": "_loanAmount",
          "type": "uint256"
        },
        {
          "internalType": "uint256",
          "name": "_interestRate",
          "type": "uint256"
        },
        {
          "internalType": "uint256",
          "name": "_dueDate",
          "type": "uint256"
        }
      ],
      "stateMutability": "nonpayable",
      "type": "constructor"
    },
    {
      "anonymous": false,
      "inputs": [
        {
          "indexed": true,
          "internalType": "address",
          "name": "_lender",
          "type": "address"
        },
        {
          "indexed": true,
          "internalType": "address",
          "name": "_borrower",
          "type": "address"
        },
        {
          "indexed": false,
          "internalType": "uint256",
          "name": "_loanAmount",
          "type": "uint256"
        },
        {
          "indexed": false,
          "internalType": "uint256",
          "name": "_interestRate",
          "type": "uint256"
        },
        {
          "indexed": false,
          "internalType": "uint256",
          "name": "_dueDate",
          "type": "uint256"
        }
      ],
      "name": "LoanIssued",
      "type": "event"
    },
    {
      "anonymous": false,
      "inputs": [
        {
          "indexed": true,
          "internalType": "address",
          "name": "_borrower",
          "type": "address"
        },
        {
          "indexed": false,
          "internalType": "uint256",
          "name": "_repaidAmount",
          "type": "uint256"
        }
      ],
      "name": "LoanRepaid",
      "type": "event"
    },
    {
      "inputs": [],
      "name": "borrower",
      "outputs": [
        {
          "internalType": "address",
          "name": "",
          "type": "address"
        }
      ],
      "stateMutability": "view",
      "type": "function",
      "constant": true
    },
    {
      "inputs": [],
      "name": "dueDate",
      "outputs": [
        {
          "internalType": "uint256",
          "name": "",
          "type": "uint256"
        }
      ],
      "stateMutability": "view",
      "type": "function",
      "constant": true
    },
    {
      "inputs": [],
      "name": "interestRate",
      "outputs": [
        {
          "internalType": "uint256",
          "name": "",
          "type": "uint256"
        }
      ],
      "stateMutability": "view",
      "type": "function",
      "constant": true
    },
    {
      "inputs": [],
      "name": "lender",
      "outputs": [
        {
          "internalType": "address",
          "name": "",
          "type": "address"
        }
      ],
      "stateMutability": "view",
      "type": "function",
      "constant": true
    },
    {
      "inputs": [],
      "name": "loanAmount",
      "outputs": [
        {
          "internalType": "uint256",
          "name": "",
          "type": "uint256"
        }
      ],
      "stateMutability": "view",
      "type": "function",
      "constant": true
    },
    {
      "inputs": [],
      "name": "loanRepaid",
      "outputs": [
        {
          "internalType": "bool",
          "name": "",
          "type": "bool"
        }
      ],
      "stateMutability": "view",
      "type": "function",
      "constant": true
    },
    {
      "inputs": [],
      "name": "repayLoan",
      "outputs": [],
      "stateMutability": "payable",
      "type": "function",
      "payable": true
    },
    {
      "inputs": [],
      "name": "calculateTotalAmount",
      "outputs": [
        {
          "internalType": "uint256",
          "name": "",
          "type": "uint256"
        }
      ],
      "stateMutability": "view",
      "type": "function",
      "constant": true
    },
    {
      "inputs": [],
      "name": "getContractBalance",
      "outputs": [
        {
          "internalType": "uint256",
          "name": "",
          "type": "uint256"
        }
      ],
      "stateMutability": "view",
      "type": "function",
      "constant": true
    }
  ],
  "bytecode": "0x60806040523480156200001157600080fd5b5060405162000d7b38038062000d7b833981810160405281019062000037919062000209565b336000806101000a81548173ffffffffffffffffffffffffffffffffffffffff021916908373ffffffffffffffffffffffffffffffffffffffff16021790555083600160006101000a81548173ffffffffffffffffffffffffffffffffffffffff021916908373ffffffffffffffffffffffffffffffffffffffff1602179055508260028190555081600381905550603c80601883620000d8919062000320565b620000e4919062000320565b620000f0919062000320565b42620000fd9190620002c3565b6004819055506000600560006101000a81548160ff021916908315150217905550600160009054906101000a900473ffffffffffffffffffffffffffffffffffffffff1673ffffffffffffffffffffffffffffffffffffffff1660008054906101000a900473ffffffffffffffffffffffffffffffffffffffff1673ffffffffffffffffffffffffffffffffffffffff167ff09165c4f3e785f7ae2fbf5814f8ad234b102fb757cab59aed03d478197765a6600254600354600454604051620001c99392919062000286565b60405180910390a35050505062000422565b600081519050620001ec81620003ee565b92915050565b600081519050620002038162000408565b92915050565b600080600080608085870312156200022057600080fd5b60006200023087828801620001db565b94505060206200024387828801620001f2565b93505060406200025687828801620001f2565b92505060606200026987828801620001f2565b91505092959194509250565b6200028081620003b5565b82525050565b60006060820190506200029d600083018662000275565b620002ac602083018562000275565b620002bb604083018462000275565b949350505050565b6000620002d082620003b5565b9150620002dd83620003b5565b9250827fffffffffffffffffffffffffffffffffffffffffffffffffffffffffffffffff03821115620003155762000314620003bf565b5b828201905092915050565b60006200032d82620003b5565b91506200033a83620003b5565b9250817fffffffffffffffffffffffffffffffffffffffffffffffffffffffffffffffff0483118215151615620003765762000375620003bf565b5b828202905092915050565b60006200038e8262000395565b9050919050565b600073ffffffffffffffffffffffffffffffffffffffff82169050919050565b6000819050919050565b7f4e487b7100000000000000000000000000000000000000000000000000000000600052601160045260246000fd5b620003f98162000381565b81146200040557600080fd5b50565b6200041381620003b5565b81146200041f57600080fd5b50565b61094980620004326000396000f3fe6080604052600436106100865760003560e01c80637df1f1b9116100595780637df1f1b9146101375780639d585f7f14610162578063bcead63e1461018d578063bff1d2e3146101b8578063f966ade7146101e357610086565b80632064f50e1461008b5780636f9fb98a146100b6578063786716fe146100e15780637c3a00fd1461010c575b600080fd5b34801561009757600080fd5b506100a06101ed565b6040516100ad9190610755565b60405180910390f35b3480156100c257600080fd5b506100cb610222565b6040516100d89190610755565b60405180910390f35b3480156100ed57600080fd5b506100f661022a565b6040516101039190610755565b60405180910390f35b34801561011857600080fd5b50610121610230565b60405161012e9190610755565b60405180910390f35b34801561014357600080fd5b5061014c610236565b604051610159919061069f565b60405180910390f35b34801561016e57600080fd5b5061017761025c565b6040516101849190610755565b60405180910390f35b34801561019957600080fd5b506101a2610262565b6040516101af919061069f565b60405180910390f35b3480156101c457600080fd5b506101cd610286565b6040516101da91906106ba565b60405180910390f35b6101eb610299565b005b60008060646003546002546102029190610813565b61020c91906107e2565b90508060025461021c919061078c565b91505090565b600047905090565b60045481565b60035481565b600160009054906101000a900473ffffffffffffffffffffffffffffffffffffffff1681565b60025481565b60008054906101000a900473ffffffffffffffffffffffffffffffffffffffff1681565b600560009054906101000a900460ff1681565b600160009054906101000a900473ffffffffffffffffffffffffffffffffffffffff1673ffffffffffffffffffffffffffffffffffffffff163373ffffffffffffffffffffffffffffffffffffffff1614610329576040517f08c379a000000000000000000000000000000000000000000000000000000000815260040161032090610735565b60405180910390fd5b600560009054906101000a900460ff1615610379576040517f08c379a0000000000000000000000000000000000000000000000000000000008152600401610370906106f5565b60405180910390fd5b6103816101ed565b34146103c2576040517f08c379a00000000000000000000000000000000000000000000000000000000081526004016103b990610715565b60405180910390fd5b6001600560006101000a81548160ff02191690831515021790555060008060009054906101000a900473ffffffffffffffffffffffffffffffffffffffff1673ffffffffffffffffffffffffffffffffffffffff16346040516104249061068a565b60006040518083038185875af1925050503d8060008114610461576040519150601f19603f3d011682016040523d82523d6000602084013e610466565b606091505b50509050806104aa576040517f08c379a00000000000000000000000000000000000000000000000000000000081526004016104a1906106d5565b60405180910390fd5b600160009054906101000a900473ffffffffffffffffffffffffffffffffffffffff1673ffffffffffffffffffffffffffffffffffffffff167fc200a1f31dd659e356e0f112c82558e25f49f7b0f84438691cd96f5cb3558823346040516105129190610755565b60405180910390a250565b6105268161086d565b82525050565b6105358161087f565b82525050565b600061054860198361077b565b91507f5472616e7366657220746f206c656e646572206661696c6564000000000000006000830152602082019050919050565b6000610588601c8361077b565b91507f4c6f616e2068617320616c7265616479206265656e20726570616964000000006000830152602082019050919050565b60006105c8601a8361077b565b91507f496e636f72726563742072657061796d656e7420616d6f756e740000000000006000830152602082019050919050565b600061060860248361077b565b91507f4f6e6c7920626f72726f7765722063616e2063616c6c20746869732066756e6360008301527f74696f6e000000000000000000000000000000000000000000000000000000006020830152604082019050919050565b600061066e600083610770565b9150600082019050919050565b610684816108ab565b82525050565b600061069582610661565b9150819050919050565b60006020820190506106b4600083018461051d565b92915050565b60006020820190506106cf600083018461052c565b92915050565b600060208201905081810360008301526106ee8161053b565b9050919050565b6000602082019050818103600083015261070e8161057b565b9050919050565b6000602082019050818103600083015261072e816105bb565b9050919050565b6000602082019050818103600083015261074e816105fb565b9050919050565b600060208201905061076a600083018461067b565b92915050565b600081905092915050565b600082825260208201905092915050565b6000610797826108ab565b91506107a2836108ab565b9250827fffffffffffffffffffffffffffffffffffffffffffffffffffffffffffffffff038211156107d7576107d66108b5565b5b828201905092915050565b60006107ed826108ab565b91506107f8836108ab565b925082610808576108076108e4565b5b828204905092915050565b600061081e826108ab565b9150610829836108ab565b9250817fffffffffffffffffffffffffffffffffffffffffffffffffffffffffffffffff0483118215151615610862576108616108b5565b5b828202905092915050565b60006108788261088b565b9050919050565b60008115159050919050565b600073ffffffffffffffffffffffffffffffffffffffff82169050919050565b6000819050919050565b7f4e487b7100000000000000000000000000000000000000000000000000000000600052601160045260246000fd5b7f4e487b7100000000000000000000000000000000000000000000000000000000600052601260045260246000fdfea2646970667358221220e3910942461d66b413c6e0099b0c9ed598c3081cd74cd24b9f39af269071030c64736f6c63430008000033",
  "immutableReferences": {},
  "source": "// SPDX-License-Identifier: MIT\r\npragma solidity ^0.8.0;\r\n\r\ncontract LendingContract {\r\n    address public lender;\r\n    address public borrower;\r\n    uint256 public loanAmount;\r\n    uint256 public interestRate;\r\n    uint256 public dueDate;\r\n    bool public loanRepaid;\r\n\r\n    event LoanIssued(address indexed _lender, address indexed _borrower, uint256 _loanAmount, uint256 _interestRate, uint256 _dueDate);\r\n    event LoanRepaid(address indexed _borrower, uint256 _repaidAmount);\r\n\r\n    modifier onlyLender() {\r\n        require(msg.sender == lender, \"Only lender can call this function\");\r\n        _;\r\n    }\r\n\r\n    modifier onlyBorrower() {\r\n        require(msg.sender == borrower, \"Only borrower can call this function\");\r\n        _;\r\n    }\r\n\r\n    modifier loanNotRepaid() {\r\n        require(!loanRepaid, \"Loan has already been repaid\");\r\n        _;\r\n    }\r\n\r\n    constructor(address _borrower, uint256 _loanAmount, uint256 _interestRate, uint256 _dueDate) {\r\n        lender = msg.sender;\r\n        borrower = _borrower;\r\n        loanAmount = _loanAmount;\r\n        interestRate = _interestRate;\r\n        //dueDate = _dueDate;\r\n        dueDate = block.timestamp + (_dueDate*24*60*60); // Due date : after how many days ?  \r\n\r\n        loanRepaid = false;\r\n\r\n        emit LoanIssued(lender, borrower, loanAmount, interestRate, dueDate);\r\n    }\r\n\r\n    function repayLoan() external payable onlyBorrower loanNotRepaid {\r\n        require(msg.value == calculateTotalAmount(), \"Incorrect repayment amount\");\r\n\r\n        loanRepaid = true;\r\n\r\n        //Transfer the repaid amount to the lender\r\n        (bool success, ) = lender.call{value: msg.value}(\"\");\r\n        require(success, \"Transfer to lender failed\");\r\n\r\n        emit LoanRepaid(borrower, msg.value);\r\n    }\r\n\r\n    function calculateTotalAmount() public view returns (uint256) {\r\n        uint256 interest = (loanAmount * interestRate) / 100;\r\n        return loanAmount + interest;\r\n    }\r\n\r\n    function getContractBalance() public view returns (uint256) {\r\n        return address(this).balance;\r\n    }\r\n}",
  "sourcePath": "E:\\freelancing\\TruffleTest\\p_frontend\\contracts\\lending.sol",
  "compiler": {
    "name": "solc",
    "version": "0.8.0+commit.c7dfd78e.Emscripten.clang"
  },
  "schemaVersion": "3.4.16",
  "updatedAt": "2024-02-27T18:03:02.778Z",
  "networkType": "ethereum",
  "devdoc": {
    "kind": "dev",
    "methods": {},
    "version": 1
  },
  "userdoc": {
    "kind": "user",
    "methods": {},
    "version": 1
  }
}